{
  "_format": "hh-sol-artifact-1",
  "contractName": "LibArbitrumL2",
  "sourceName": "src/solidity/contracts/openzeppelin/crosschain/arbitrum/LibArbitrumL2.sol",
  "abi": [
    {
      "inputs": [],
      "name": "ARBSYS",
      "outputs": [
        {
          "internalType": "address",
          "name": "",
          "type": "address"
        }
      ],
      "stateMutability": "view",
      "type": "function"
    }
  ],
  "bytecode": "0x60e3610052600b82828239805160001a607314610045577f4e487b7100000000000000000000000000000000000000000000000000000000600052600060045260246000fd5b30600052607381538281f3fe730000000000000000000000000000000000000000301460806040526004361060335760003560e01c8063bf0a12cf146038575b600080fd5b603e6052565b604051604991906064565b60405180910390f35b606481565b605e81607d565b82525050565b6000602082019050607760008301846057565b92915050565b6000608682608d565b9050919050565b600073ffffffffffffffffffffffffffffffffffffffff8216905091905056fea2646970667358221220b790b4dc7bd8e60994b6193656d934073e89e9f604f92e45997e598758758dd564736f6c63430008040033",
  "linkReferences": {},
  "deployedLinkReferences": {}
}